:100000000C945E000C94EB080C9418090C94860078
:100010000C9486000C9486000C9486000C94860048
:100020000C9486000C9486000C9486000C94860038
:100030000C9486000C9486000C9486000C94860028
:100040000C9445090C9486000C94B8010C94FB01A7
:100050000C9486000C9486000C9486000C94860008
:100060000C9486000C94860000000007000201003A
:100070000003040600000000000000000102040864
:100080001020408001020408102001020408102002
:10009000040404040404040402020202020203032E
:1000A0000303030300000000250028002B000000CC
:1000B0000000240027002A001801B70211241FBEE7
:1000C000CFEFD8E0DEBFCDBF11E0A0E0B1E0E0E1CE
:1000D000F8E102C005900D92AE32B107D9F712E0F7
:1000E000AEE2B1E001C01D92A83CB107E1F710E01B
:1000F000CCEBD0E004C02297FE010E94020CC83B6A
:10010000D107C9F70E940D030C94970A0C940000C4
:100110006115710581F0DB010D900020E9F7AD015B
:1001200041505109461B570BDC01ED91FC910280B7
:10013000F381E02D099480E090E0089540E855E2D5
:1001400060E070E087E391E00E9436026AE070E0D0
:100150008EE291E00E94660369E271E08EE291E036
:100160000C946203CF9387E391E00E941C01892BDA
:1001700009F45CC087E391E00E944B01C82F682F0F
:10018000772767FD70956E5F7E4F87E391E00E9451
:10019000880064E071E087E391E00E948800C13448
:1001A00069F46AE071E087E391E00E94880028E149
:1001B00030E048E254EB6CE870E033C0C23469F4DC
:1001C0006FE071E087E391E00E94880028E130E071
:1001D00044E254EB6CE870E024C0C33469F464E199
:1001E00071E087E391E00E94880028E130E041E27D
:1001F00054EB6CE870E015C0C43469F469E171E057
:1002000087E391E00E94880028E130E042E254EB6D
:100210006CE870E006C028E130E04FE154EB6CE898
:1002200070E08EE291E00E94AD089DCFCF910895DD
:100230008EE291E00C944203FC0184859585FC01DB
:10024000E05CFF4F20813181FC01EE5BFF4F80813C
:100250009181281B390B2F733327C9010895FC01A5
:1002600084859585FC01E05CFF4F40815181FC0154
:10027000EE5BFF4F208131814217530741F001901F
:10028000F081E02DE80FF91F208130E002C02FEF50
:100290003FEFC9010895FC0184859585FC01E05C70
:1002A000FF4F40815181FC01EE5BFF4F2081318186
:1002B0004217530781F0A081B181A80FB91F8C911B
:1002C000208131812F5F3F4F2F733327318320836C
:1002D000282F30E002C02FEF3FEFC9010895FC0145
:1002E00081A1882329F0A489B5898C9186FFFBCF51
:1002F00011A20895CF93DF93FC0126853785D9019C
:10030000A05CBF4F8D919C91119701968F73992797
:10031000E901CE5BDF4F4881598184179507D9F3F6
:100320000D90BC91A02DA20FB31F6C93A685B7852D
:10033000A05CBF4F11969C938E93A689B7892C9190
:1003400081E090E0078C02C0880F991F0A94E2F7C1
:10035000282B2C9381E081A30488F589E02D8081EE
:100360008064808381E090E0DF91CF9108950895CB
:100370001F920F920FB60F9211242F933F934F931A
:100380008F939F93EF93FF938091C00082FD1CC0D9
:100390004091C6008091DD019091DE0101968F733E
:1003A00099272091DF013091E0018217930771F0C6
:1003B000E091DD01F091DE01E356FE4F4083909322
:1003C000DE018093DD0102C08091C600FF91EF91B4
:1003D0009F918F914F913F912F910F900FBE0F9052
:1003E0001F90189587E391E00E941C01892B11F062
:1003F0000C94B70108951F920F920FB60F9211241B
:100400002F933F938F939F93EF93FF9320919901A5
:1004100030919A0180919B0190919C012817390796
:1004200031F48091C1008F7D8093C10014C0E091B0
:100430009B01F0919C01E75AFE4F208180919B0126
:1004400090919C0101968F73992790939C018093C2
:100450009B012093C600FF91EF919F918F913F9157
:100460002F910F900FBE0F901F901895CF92DF9293
:10047000EF92FF92CF93DF93EC016A017B0141156C
:1004800081EE580761057105F9F0EC89FD8981E07D
:1004900090E008A002C0880F991F0A94E2F78083B9
:1004A00060E079E08DE390E0A70196010E94DE0B09
:1004B000215031094109510956954795379527959E
:1004C000211580E1380798F0EC89FD89108260E8F9
:1004D00074E88EE190E0A70196010E94DE0B2150A6
:1004E0003109410951095695479537952795E8896E
:1004F000F9893083EA89FB89208319A2EE89FF8973
:10050000408181E090E09C010C8C02C0220F331FDF
:100510000A94E2F7422B4083EE89FF8940819C01D7
:100520000D8C02C0220F331F0A94E2F7422B408346
:10053000EE89FF8940819C010E8C02C0220F331F7F
:100540000A94E2F7422B4083EE89FF8920810F8CC9
:1005500002C0880F991F0A94E2F780958223808356
:10056000DF91CF91FF90EF90DF90CF9008951092A0
:100570003A011092390188EE93E0A0E0B0E0809358
:100580003B0190933C01A0933D01B0933E0182E278
:1005900091E090933801809337018DE991E0909339
:1005A00044018093430189E591E090934601809353
:1005B000450185EC90E0909348018093470184ECDD
:1005C00090E090934A018093490180EC90E09093F1
:1005D0004C0180934B0181EC90E090934E0180930D
:1005E0004D0182EC90E09093500180934F0186EC96
:1005F00090E0909352018093510184E080935301E5
:1006000083E08093540187E08093550185E08093D7
:10061000560181E08093570108950E94C3090E940A
:100620009E00C2EFD1E00E94B2002097E1F30E9449
:10063000F201F9CFCF92DF92EF92FF920F931F93C7
:10064000CF93DF936C01EB017A01E60EF71E00E019
:1006500010E00BC06991D601ED91FC910190F08101
:10066000E02DC6010995080F191FCE15DF0591F77A
:10067000C801DF91CF911F910F91FF90EF90DF9014
:10068000CF900895FC018FEF9FEF938382832EE537
:1006900031E0358324832AE030E03783268321E06C
:1006A0002087918380838CE390E090930101809375
:1006B000000110926D0210926E0210926F02109261
:1006C00070020895FC01758364830895FC01862FF0
:1006D0006283738361E00C94280AFC01808191811C
:1006E0008F3FFFEF9F0791F010926D0210926E0204
:1006F00010926F021092700210926C0210926B02B4
:1007000041E050E06DEE77E00C94BB080895CF9384
:10071000DF93EC0188810E94DB088FEF9FEF9983C4
:100720008883DF91CF910895BF92CF92DF92EF92AD
:10073000FF920F931F93CF93DF93EC016B017A012C
:10074000088119818A819B810196D9F10F3F3FEF82
:10075000130731F0CE010E948703BB24B39401C07C
:10076000B12C61E08A810E94600A8C819D819C018C
:10077000C29EC001C39E900DD29E900D11240E9476
:10078000B90960E08A810E94600A8C819D819C0188
:10079000E29EC001E39E900DF29E900D11240E94F6
:1007A000B909BB2071F019830883CE01DF91CF9185
:1007B0001F910F91FF90EF90DF90CF90BF900C941E
:1007C0006D03DF91CF911F910F91FF90EF90DF901C
:1007D000CF90BF900895FC012085213019F44FE19E
:1007E00050E009C0223019F44AE050E004C0233040
:1007F00031F447E450E061E070E00C949403089514
:10080000FC012085213029F441E050E063E070E0F4
:100810000DC0223029F441E050E062E070E006C0F3
:10082000233031F446E050E069E070E00C9494032A
:100830000895FC012085213019F443E050E004C004
:10084000223029F442E050E061E070E006C023303D
:1008500031F44BE050E064E070E00C9494030895B0
:10086000CF92DF92EF92FF920F931F93CF93DF937C
:100870008C016B01E12CF12C15C0803319F0813310
:1008800041F404C0C8010E94190403C0C8010E94B9
:10089000000489918111F1CFC8010E94EB038FEF11
:1008A000E81AF80AF80186819781E816F9061CF41F
:1008B000CC2DDD2DEECFDF91CF911F910F91FF90C9
:1008C000EF90DF90CF9008952F923F924F925F92DA
:1008D0006F927F928F929F92AF92BF92CF92DF9250
:1008E000EF92FF920F931F93CF93DF93CDB7DEB7B5
:1008F0002C970FB6F894DEBF0FBECDBF1C018091C0
:10090000E1019091E2016FE170E00E94CA0B8B015E
:100910004B01A12CB12CA0910001B09101019B01D0
:100920000E94C30B0E94C60A2AE037ED43E25CE353
:100930000E94540B0E949A0A6B017C019801A3E06B
:10094000B0E00E94B70B9B01AC012C193D094E0988
:100950005F0929833A834B835C8326013701460E66
:10096000571E681E791E21E030E080E090E0DC0137
:10097000B501A4014C195D096E097F094D835E83A1
:100980006F837887B701A601480D591D6A1D7B1D2D
:1009900049875A876B877C876CC0F901EE0FFF1F70
:1009A000EF51FE4F408151814A01A12CB12CCD80E5
:1009B000DE80EF80F884C814D904EA04FB0408F54B
:1009C00049855A856B857C8584169506A606B706EB
:1009D000C0F4F901EE0FFF1FED51FE4F4081518130
:1009E00060E070E0C980DA80EB80FC80C416D50638
:1009F000E606F70630F4441555056605770508F454
:100A00002DC049815A816B817C81481559056A0541
:100A10007B0548F584149504A604B70420F5F90174
:100A2000EE0FFF1FED51FE4F408151814A01A12C75
:100A3000B12CCD80DE80EF80F884C814D904EA049C
:100A4000FB0488F449855A856B857C858416950658
:100A5000A606B70640F40196A11DB11D880F991F87
:100A6000AA1FBB1F04C0910180E090E0DC012E5F53
:100A70003F4F2215330508F490CFB695A79597956B
:100A8000879557E025163104C0F080936D0290934E
:100A90006E02A0936F02B093700236942794309246
:100AA0006C0220926B0210936A020093690221E0AB
:100AB00030E0309368022093670221E0892B8A2B73
:100AC0008B2B09F420E0822F2C960FB6F894DEBF12
:100AD0000FBECDBFDF91CF911F910F91FF90EF908F
:100AE000DF90CF90BF90AF909F908F907F906F904E
:100AF0005F904F903F902F9008952F923F924F928A
:100B00005F926F927F928F929F92AF92BF92CF929D
:100B1000DF92EF92FF920F931F93CF93DF93CDB7A6
:100B2000DEB760970FB6F894DEBF0FBECDBF1C01D5
:100B30008091E1019091E2016AE070E00E94CA0BAD
:100B40008B016B01E12CF12CA0910001B09101010E
:100B50009B010E94C30B0E94C60A2AE037ED43E2C4
:100B60005CE30E94540B0E949A0A4B015C01B7019E
:100B7000A601440F551F661F771F2A013B01481825
:100B800059086A087B08D501C401840F951FA61F68
:100B9000B71F8D839E83AF83B88721E030E080E06C
:100BA00090E0DC01B701A601481959096A097B09DF
:100BB00049875A876B877C87B701A601480D591D65
:100BC0006A1D7B1D4D875E876F87788B71C0F90129
:100BD000EE0FFF1FEF51FE4F0190F081E02DAF01AE
:100BE00060E070E089849A84AB84BC8484169506A6
:100BF000A606B70630F5AD84BE84CF84D8884A15E2
:100C00005B056C057D05E8F4F901EE0FFF1FED5162
:100C1000FE4FE080F1804701A12CB12C89829A829D
:100C2000AB82BC82481459046A047B0450F4CD8022
:100C3000DE80EF80F8848C149D04AE04BF0408F4B9
:100C40002CC0441655066606770660F58D809E809A
:100C5000AF80B884481559056A057B0518F5F90178
:100C6000EE0FFF1FED51FE4F80809180A12CB12C23
:100C7000C984DA84EB84FC84C814D904EA04FB0434
:100C800088F44D855E856F85788984169506A6065D
:100C9000B70640F40196A11DB11D880F991FAA1F28
:100CA000BB1F04C0910180E090E0DC012E5F3F4F4C
:100CB0002215330508F48BCFB695A79597958795A0
:100CC00057E025163104C0F080936D0290936E02B8
:100CD000A0936F02B09370023694279430926C0206
:100CE00020926B0210936A020093690222E030E0C6
:100CF000309368022093670221E0892B8A2B8B2B8B
:100D000009F420E0822F60960FB6F894DEBF0FBE84
:100D1000CDBFDF91CF911F910F91FF90EF90DF90AA
:100D2000CF90BF90AF909F908F907F906F905F908B
:100D30004F903F902F9008952F923F924F925F9245
:100D40006F927F928F929F92AF92BF92CF92DF92DB
:100D5000EF92FF920F931F93CF93DF93CDB7DEB740
:100D60006C970FB6F894DEBF0FBECDBF8C0180919B
:100D7000E1019091E20167E470E00E94CA0B1B015F
:100D8000A0910001B09101019B010E94C30B0E9440
:100D9000C60A2AE037ED43E25CE30E94540B0E944E
:100DA0009A0A4B015C01C101A0E0B0E052E0880F5B
:100DB000991FAA1FBB1F5A95D1F72C013D01481856
:100DC00059086A087B0849825A826B827C827501C5
:100DD0006401C80ED91EEA1EFB1ECD82DE82EF82A0
:100DE000F8869101ABE0B0E00E94B70B2B013C010B
:100DF000481859086A087B0849865A866B867C869B
:100E000075016401C60ED71EE81EF91ECD86DE866A
:100E1000EF86F88AA9E0B0E00E94B70B2B013C01F5
:100E2000481859086A087B08498A5A8A6B8A7C8A5A
:100E300075016401C60ED71EE81EF91EC98EDA8E32
:100E4000EB8EFC8EA6E0B0E00E94B70B9B01AC01DC
:100E5000281939094A095B092D8B3E8B4F8B588F16
:100E6000860E971EA81EB91E21E030E080E090E0BB
:100E7000DC0170C0F901EE0FFF1FEF51FE4F408102
:100E8000518160E070E049805A806B807C8044161C
:100E900055066606770638F5CD80DE80EF80F8844B
:100EA0004C155D056E057F05F0F4F901EE0FFF1F8F
:100EB000ED51FE4F0190F081E02D6F01E12CF12CFE
:100EC00049845A846B847C844C145D046E047F04D2
:100ED00050F44D845E846F847888C414D504E6048D
:100EE000F70408F42CC0C988DA88EB88FC88C4169B
:100EF000D506E606F70640F5498C5A8C6B8C7C8C3F
:100F00004415550566057705F8F4F901EE0FFF1F46
:100F1000ED51FE4F4081518160E070E0CD88DE8868
:100F2000EF88F88CC416D506E606F70668F448156F
:100F300059056A057B0540F40196A11DB11D880F76
:100F4000991FAA1FBB1F04C0980180E090E0DC013C
:100F50002E5F3F4F2017310708F48CCFB695A79529
:100F60009795879507301105C0F080936D02909397
:100F70006E02A0936F02B0937002169507951093BE
:100F80006C0200936B0230926A022092690223E0A5
:100F900030E0309368022093670221E0892B8A2B8E
:100FA0008B2B09F420E0822F6C960FB6F894DEBFED
:100FB0000FBECDBFDF91CF911F910F91FF90EF90AA
:100FC000DF90CF90BF90AF909F908F907F906F9069
:100FD0005F904F903F902F900895CF92DF92EF92C5
:100FE000FF920F931F93CF93DF930E948F096B01A2
:100FF0007C0180917102909172028601081B190B8D
:101000001093760200937502093883E11807C0F146
:101010008091E1019091E2019C01285C3109201747
:10102000310750F588539F4F0817190728F580910D
:1010300077029091780201969093780280937702DC
:10104000C0917902D0917A022197D0937A02C0930D
:101050007902029789F4CE010E946404811108C0CC
:10106000CE010E947D05811103C0CE010E949C0625
:10107000109278021092770210927A0210927902FE
:101080008091790290917A028334910540F0109218
:101090007A0210927902109278021092770280916F
:1010A000790290917A02FC01EE0FFF1FEF51FE4F83
:1010B00011830083019690937A0280937902C09203
:1010C0007102D0927202E0927302F0927402DF9188
:1010D000CF911F910F91FF90EF90DF90CF900895E7
:1010E000CF93DF93EBE9F2E0A0E0B0E00BC060FF4C
:1010F00002C031E301C0322F319311969695879546
:1011000077956795611571058105910581F7EBE785
:10111000F2E080E090E0BA016A1B7B0BDA01AE0FCF
:10112000BF1F0CC08617970730F0ED01C81BD90B05
:101130003F8D308301C02083019631968417950737
:1011400089F7FC01E558FD4F10828BE792E0DF91B3
:10115000CF91089520E30C947008CF93DF93EC01B6
:10116000CB01BA01A9010E94AA08BC01CE01DF91FE
:10117000CF910C9430048230E8F4E82FF0E0EE0FC9
:10118000FF1FE554FD4F71836083813041F08091F2
:1011900069008C7F842B80936900E89A0895809180
:1011A0006900440F551F440F551F837F842B809384
:1011B0006900E99A0895823068F4813011F0E89866
:1011C00001C0E998E82FF0E0EE0FFF1FE554FD4F56
:1011D0001182108208951F920F920FB60F92112460
:1011E0002F933F934F935F936F937F938F939F932F
:1011F000AF93BF93EF93FF938091BB029091BC029A
:10120000892B29F0E091BB02F091BC020995FF9176
:10121000EF91BF91AF919F918F917F916F915F916E
:101220004F913F912F910F900FBE0F901F901895E7
:101230001F920F920FB60F9211242F933F934F934B
:101240005F936F937F938F939F93AF93BF93EF932E
:10125000FF938091BD029091BE02892B29F0E0910D
:10126000BD02F091BE020995FF91EF91BF91AF9140
:101270009F918F917F916F915F914F913F912F91AE
:101280000F900FBE0F901F9018951F920F920FB6E0
:101290000F9211242F933F938F939F93AF93BF93FC
:1012A0008091BF029091C002A091C102B091C20290
:1012B0003091C702232F2D5F2D3720F40196A11DF9
:1012C000B11D05C0232F2A570296A11DB11D2093E1
:1012D000C7028093BF029093C002A093C102B09353
:1012E000C2028091C3029091C402A091C502B09144
:1012F000C6020196A11DB11D8093C3029093C40242
:10130000A093C502B093C602BF91AF919F918F91F8
:101310003F912F910F900FBE0F901F9018950F9334
:101320001F939FB7F8940091C3021091C4022091BB
:10133000C5023091C60286B5A89B06C08F3F21F03A
:101340000F5F1F4F2F4F3F4F9FBF322F212F102F67
:101350000027080F111D211D311D42E0000F111F34
:10136000221F331F4A95D1F7B801C9011F910F9170
:101370000895019739F0880F991F880F991F0297D8
:101380000197F1F70895789484B5826084BD84B59F
:10139000816084BD85B5826085BD85B5816085BD70
:1013A000EEE6F0E0808181608083E1E8F0E0108289
:1013B000808182608083808181608083E0E8F0E0CA
:1013C000808181608083E1EBF0E0808184608083B4
:1013D000E0EBF0E0808181608083EAE7F0E08081EB
:1013E000846080838081826080838081816080834B
:1013F0008081806880831092C1000895833069F0F5
:1014000028F48130A1F0823011F514C08630B1F09B
:101410008730C1F08430D9F404C0809180008F7788
:1014200003C0809180008F7D80938000089584B5F3
:101430008F7702C084B58F7D84BD08958091B00000
:101440008F7703C08091B0008F7D8093B0000895A6
:10145000CF93DF9390E0FC01E458FF4F4491FC01EF
:10146000E057FF4F8491882341F190E0880F991F46
:10147000FC01E255FF4F25913491D9018C559F4FC6
:10148000FC0185919491C82FD92F9FB7F8948C9126
:10149000611106C0409584238C938881842308C001
:1014A000623041F4242F209582238C938881842BF1
:1014B000888302C0842B8C939FBFDF91CF910895C6
:1014C0000F931F93CF93DF931F92CDB7DEB7282FD3
:1014D00030E0F901E859FF4F8491F901E458FF4FDA
:1014E0001491F901E057FF4F04910023D1F08823B4
:1014F00021F069830E94FE096981E02FF0E0EE0F80
:10150000FF1FEC55FF4F85919491DC019FB7F89434
:101510008C91611103C01095812301C0812B8C93A4
:101520009FBF0F90DF91CF911F910F910895F89475
:101530000C94060C98D088F09F5790F0B92F9927FB
:10154000B751A0F0D1F0660F771F881F991F1AF0CE
:10155000BA95C9F712C0B13081F09FD0B1E00895BB
:101560009CC0672F782F8827B85F39F0B93FCCF33C
:10157000869577956795B395D9F73EF490958095C4
:10158000709561957F4F8F4F9F4F0895E89409C0E4
:1015900097FB3EF490958095709561957F4F8F4FA6
:1015A0009F4F9923A9F0F92F96E9BB279395F695BC
:1015B000879577956795B795F111F8CFFAF4BB0F3A
:1015C00011F460FF1BC06F5F7F4F8F4F9F4F16C09E
:1015D000882311F096E911C0772321F09EE8872F28
:1015E000762F05C0662371F096E8862F70E060E0E4
:1015F0002AF09A95660F771F881FDAF7880F96955D
:10160000879597F9089597F99F6780E870E060E003
:1016100008959FEF80EC089500240A94161617068B
:1016200018060906089500240A94121613061406D3
:1016300005060895092E0394000C11F4882352F036
:10164000BB0F40F4BF2B11F460FF04C06F5F7F4FEE
:101650008F4F9F4F089557FD9058440F551F59F0D5
:101660005F3F71F04795880F97FB991F61F09F3F8F
:1016700079F087950895121613061406551FF2CFB8
:101680004695F1DF08C0161617061806991FF1CF08
:1016900086957105610508940895E894BB2766272F
:1016A0007727CB0197F908950BD0C4CFB5DF28F089
:1016B000BADF18F0952309F0A6CFABCF1124EECFF7
:1016C000CADFA0F3959FD1F3950F50E0551F629F9D
:1016D000F001729FBB27F00DB11D639FAA27F00D8B
:1016E000B11DAA1F649F6627B00DA11D661F829FB2
:1016F0002227B00DA11D621F739FB00DA11D621F97
:10170000839FA00D611D221F749F3327A00D611DB3
:10171000231F849F600D211D822F762F6A2F112495
:101720009F5750408AF0E1F088234AF0EE0FFF1FE8
:10173000BB1F661F771F881F91505040A9F79E3F1F
:10174000510570F060CFAACF5F3FECF3983EDCF319
:10175000869577956795B795F795E7959F5FC1F75C
:10176000FE2B880F911D9695879597F90895A29F56
:10177000B001B39FC001A39F01D0B29F700D811D26
:101780001124911D08950E94B70BB7FF0895821B85
:10179000930B0895AA1BBB1B51E107C0AA1FBB1FD7
:1017A000A617B70710F0A61BB70B881F991F5A95ED
:1017B000A9F780959095BC01CD010895A1E21A2E5C
:1017C000AA1BBB1BFD010DC0AA1FBB1FEE1FFF1FE5
:1017D000A217B307E407F50720F0A21BB30BE40B35
:1017E000F50B661F771F881F991F1A9469F760957C
:1017F0007095809590959B01AC01BD01CF01089536
:10180000EE0FFF1F0590F491E02D0994F894FFCF9F
:101810003C000A0054657374650041212121004297
:101820002121210043212121004421212100000008
:0E18300000007A011A031C014B012F016F0109
:00000001FF
